{
  "_format": "hh-sol-artifact-1",
  "contractName": "Lottery",
  "sourceName": "contracts/Lottery.sol",
  "abi": [
    {
      "inputs": [
        {
          "internalType": "string",
          "name": "tokenName",
          "type": "string"
        },
        {
          "internalType": "string",
          "name": "tokenSymbol",
          "type": "string"
        },
        {
          "internalType": "uint256",
          "name": "_purchaseRatio",
          "type": "uint256"
        },
        {
          "internalType": "uint256",
          "name": "_betPrice",
          "type": "uint256"
        },
        {
          "internalType": "uint256",
          "name": "_betFee",
          "type": "uint256"
        }
      ],
      "stateMutability": "nonpayable",
      "type": "constructor"
    },
    {
      "inputs": [
        {
          "internalType": "address",
          "name": "owner",
          "type": "address"
        }
      ],
      "name": "OwnableInvalidOwner",
      "type": "error"
    },
    {
      "inputs": [
        {
          "internalType": "address",
          "name": "account",
          "type": "address"
        }
      ],
      "name": "OwnableUnauthorizedAccount",
      "type": "error"
    },
    {
      "anonymous": false,
      "inputs": [
        {
          "indexed": true,
          "internalType": "address",
          "name": "previousOwner",
          "type": "address"
        },
        {
          "indexed": true,
          "internalType": "address",
          "name": "newOwner",
          "type": "address"
        }
      ],
      "name": "OwnershipTransferred",
      "type": "event"
    },
    {
      "inputs": [],
      "name": "bet",
      "outputs": [],
      "stateMutability": "nonpayable",
      "type": "function"
    },
    {
      "inputs": [],
      "name": "betFee",
      "outputs": [
        {
          "internalType": "uint256",
          "name": "",
          "type": "uint256"
        }
      ],
      "stateMutability": "view",
      "type": "function"
    },
    {
      "inputs": [
        {
          "internalType": "uint256",
          "name": "times",
          "type": "uint256"
        }
      ],
      "name": "betMany",
      "outputs": [],
      "stateMutability": "nonpayable",
      "type": "function"
    },
    {
      "inputs": [],
      "name": "betPrice",
      "outputs": [
        {
          "internalType": "uint256",
          "name": "",
          "type": "uint256"
        }
      ],
      "stateMutability": "view",
      "type": "function"
    },
    {
      "inputs": [],
      "name": "betsClosingTime",
      "outputs": [
        {
          "internalType": "uint256",
          "name": "",
          "type": "uint256"
        }
      ],
      "stateMutability": "view",
      "type": "function"
    },
    {
      "inputs": [],
      "name": "betsOpen",
      "outputs": [
        {
          "internalType": "bool",
          "name": "",
          "type": "bool"
        }
      ],
      "stateMutability": "view",
      "type": "function"
    },
    {
      "inputs": [],
      "name": "closeLottery",
      "outputs": [],
      "stateMutability": "nonpayable",
      "type": "function"
    },
    {
      "inputs": [],
      "name": "getRandomNumber",
      "outputs": [
        {
          "internalType": "uint256",
          "name": "randomNumber",
          "type": "uint256"
        }
      ],
      "stateMutability": "view",
      "type": "function"
    },
    {
      "inputs": [
        {
          "internalType": "uint256",
          "name": "closingTime",
          "type": "uint256"
        }
      ],
      "name": "openBets",
      "outputs": [],
      "stateMutability": "nonpayable",
      "type": "function"
    },
    {
      "inputs": [],
      "name": "owner",
      "outputs": [
        {
          "internalType": "address",
          "name": "",
          "type": "address"
        }
      ],
      "stateMutability": "view",
      "type": "function"
    },
    {
      "inputs": [],
      "name": "ownerPool",
      "outputs": [
        {
          "internalType": "uint256",
          "name": "",
          "type": "uint256"
        }
      ],
      "stateMutability": "view",
      "type": "function"
    },
    {
      "inputs": [
        {
          "internalType": "uint256",
          "name": "amount",
          "type": "uint256"
        }
      ],
      "name": "ownerWithdraw",
      "outputs": [],
      "stateMutability": "nonpayable",
      "type": "function"
    },
    {
      "inputs": [],
      "name": "paymentToken",
      "outputs": [
        {
          "internalType": "contract LotteryToken",
          "name": "",
          "type": "address"
        }
      ],
      "stateMutability": "view",
      "type": "function"
    },
    {
      "inputs": [
        {
          "internalType": "address",
          "name": "",
          "type": "address"
        }
      ],
      "name": "prize",
      "outputs": [
        {
          "internalType": "uint256",
          "name": "",
          "type": "uint256"
        }
      ],
      "stateMutability": "view",
      "type": "function"
    },
    {
      "inputs": [],
      "name": "prizePool",
      "outputs": [
        {
          "internalType": "uint256",
          "name": "",
          "type": "uint256"
        }
      ],
      "stateMutability": "view",
      "type": "function"
    },
    {
      "inputs": [
        {
          "internalType": "uint256",
          "name": "amount",
          "type": "uint256"
        }
      ],
      "name": "prizeWithdraw",
      "outputs": [],
      "stateMutability": "nonpayable",
      "type": "function"
    },
    {
      "inputs": [],
      "name": "purchaseRatio",
      "outputs": [
        {
          "internalType": "uint256",
          "name": "",
          "type": "uint256"
        }
      ],
      "stateMutability": "view",
      "type": "function"
    },
    {
      "inputs": [],
      "name": "purchaseTokens",
      "outputs": [],
      "stateMutability": "payable",
      "type": "function"
    },
    {
      "inputs": [],
      "name": "renounceOwnership",
      "outputs": [],
      "stateMutability": "nonpayable",
      "type": "function"
    },
    {
      "inputs": [
        {
          "internalType": "uint256",
          "name": "amount",
          "type": "uint256"
        }
      ],
      "name": "returnTokens",
      "outputs": [],
      "stateMutability": "nonpayable",
      "type": "function"
    },
    {
      "inputs": [
        {
          "internalType": "address",
          "name": "newOwner",
          "type": "address"
        }
      ],
      "name": "transferOwnership",
      "outputs": [],
      "stateMutability": "nonpayable",
      "type": "function"
    }
  ],
  "bytecode": "0x60806040523480156200001157600080fd5b5060405162001eb938038062001eb9833981016040819052620000349162000202565b33806200005b57604051631e4fbdf760e01b81526000600482015260240160405180910390fd5b6200006681620000d7565b508484604051620000779062000127565b62000084929190620002b5565b604051809103906000f080158015620000a1573d6000803e3d6000fd5b50600180546001600160a01b0319166001600160a01b039290921691909117905560029290925560035560045550620002e79050565b600080546001600160a01b038381166001600160a01b0319831681178455604051919092169283917f8be0079c531659141344cd1fd0a4f28419497f9722a3daafe3b4186f6b6457e09190a35050565b610fdc8062000edd83390190565b634e487b7160e01b600052604160045260246000fd5b60005b83811015620001685781810151838201526020016200014e565b50506000910152565b600082601f8301126200018357600080fd5b81516001600160401b0380821115620001a057620001a062000135565b604051601f8301601f19908116603f01168101908282118183101715620001cb57620001cb62000135565b81604052838152866020858801011115620001e557600080fd5b620001f88460208301602089016200014b565b9695505050505050565b600080600080600060a086880312156200021b57600080fd5b85516001600160401b03808211156200023357600080fd5b6200024189838a0162000171565b965060208801519150808211156200025857600080fd5b50620002678882890162000171565b60408801516060890151608090990151979a919950979695509350505050565b60008151808452620002a18160208601602086016200014b565b601f01601f19169290920160200192915050565b604081526000620002ca604083018562000287565b8281036020840152620002de818562000287565b95945050505050565b610be680620002f76000396000f3fe60806040526004361061012a5760003560e01c8063719ce73e116100ab57806395cadc471161006f57806395cadc47146102e6578063990a49f5146102fc578063cfd8a1751461031c578063d1b258ff14610332578063dbdff2c11461035c578063f2fde38b1461036f57600080fd5b8063719ce73e1461024f578063729e91e914610265578063841e6ce9146102855780638adf9c1f1461029b5780638da5cb5b146102c857600080fd5b806333f707d1116100f257806333f707d1146101c55780633ae1786f146101e55780633cc121e6146102055780636fd0981614610225578063715018a61461023a57600080fd5b806311610c251461012f57806318c34965146101465780632b65e0401461016f5780633013ce29146101855780633290ce29146101bd575b600080fd5b34801561013b57600080fd5b5061014461038f565b005b34801561015257600080fd5b5061015c60085481565b6040519081526020015b60405180910390f35b34801561017b57600080fd5b5061015c60065481565b34801561019157600080fd5b506001546101a5906001600160a01b031681565b6040516001600160a01b039091168152602001610166565b610144610504565b3480156101d157600080fd5b506101446101e0366004610a81565b610588565b3480156101f157600080fd5b50610144610200366004610a81565b610672565b34801561021157600080fd5b50610144610220366004610a81565b610711565b34801561023157600080fd5b50610144610782565b34801561024657600080fd5b5061014461089d565b34801561025b57600080fd5b5061015c60055481565b34801561027157600080fd5b50610144610280366004610a81565b6108b1565b34801561029157600080fd5b5061015c60045481565b3480156102a757600080fd5b5061015c6102b6366004610a9a565b60096020526000908152604090205481565b3480156102d457600080fd5b506000546001600160a01b03166101a5565b3480156102f257600080fd5b5061015c60025481565b34801561030857600080fd5b50610144610317366004610a81565b6108de565b34801561032857600080fd5b5061015c60035481565b34801561033e57600080fd5b5060075461034c9060ff1681565b6040519015158152602001610166565b34801561036857600080fd5b504461015c565b34801561037b57600080fd5b5061014461038a366004610a9a565b610997565b60075460ff1680156103a2575060085442105b6103e75760405162461bcd60e51b8152602060048201526011602482015270131bdd1d195c9e481a5cc818db1bdcd959607a1b60448201526064015b60405180910390fd5b600454600660008282546103fb9190610ae0565b909155505060035460058054600090610415908490610ae0565b9091555050600a8054600181810183556000929092527fc65a7bb8d6351c1cf70c95a316cc6a92839c986682d98bc35f958f4883f9d2a80180546001600160a01b0319163390811790915590546004546003546001600160a01b0392909216926323b872dd92909130916104899190610ae0565b6040516001600160e01b031960e086901b1681526001600160a01b03938416600482015292909116602483015260448201526064016020604051808303816000875af11580156104dd573d6000803e3d6000fd5b505050506040513d601f19601f820116820180604052508101906105019190610af9565b50565b6001546002546001600160a01b03909116906340c10f199033906105289034610b1b565b6040516001600160e01b031960e085901b1681526001600160a01b0390921660048301526024820152604401600060405180830381600087803b15801561056e57600080fd5b505af1158015610582573d6000803e3d6000fd5b50505050565b6105906109d2565b6006548111156105e25760405162461bcd60e51b815260206004820152601960248201527f4e6f7420656e6f756768206665657320636f6c6c65637465640000000000000060448201526064016103de565b80600660008282546105f49190610b32565b909155505060015460405163a9059cbb60e01b8152336004820152602481018390526001600160a01b039091169063a9059cbb906044016020604051808303816000875af115801561064a573d6000803e3d6000fd5b505050506040513d601f19601f8201168201806040525081019061066e9190610af9565b5050565b60015460405163079cc67960e41b8152336004820152602481018390526001600160a01b03909116906379cc679090604401600060405180830381600087803b1580156106be57600080fd5b505af11580156106d2573d6000803e3d6000fd5b50506002543392506108fc91506106e99084610b5b565b6040518115909202916000818181858888f1935050505015801561066e573d6000803e3d6000fd5b336000908152600960205260409020548111156107635760405162461bcd60e51b815260206004820152601060248201526f4e6f7420656e6f756768207072697a6560801b60448201526064016103de565b33600090815260096020526040812080548392906105f4908490610b32565b6008544210156107c85760405162461bcd60e51b8152602060048201526011602482015270546f6f20736f6f6e20746f20636c6f736560781b60448201526064016103de565b60075460ff1661080b5760405162461bcd60e51b815260206004820152600e60248201526d105b1c9958591e4818db1bdcd95960921b60448201526064016103de565b600a541561089157600a546000906108239044610b6f565b90506000600a828154811061083a5761083a610b83565b60009182526020808320909101546005546001600160a01b03909116808452600990925260408320805492945090929091610876908490610ae0565b90915550506000600581905561088e90600a90610a4f565b50505b6007805460ff19169055565b6108a56109d2565b6108af60006109ff565b565b600081116108be57600080fd5b8015610501576108cc61038f565b806108d681610b99565b9150506108be565b6108e66109d2565b60075460ff161561092b5760405162461bcd60e51b815260206004820152600f60248201526e2637ba3a32b93c9034b99037b832b760891b60448201526064016103de565b4281116109855760405162461bcd60e51b815260206004820152602260248201527f436c6f73696e672074696d65206d75737420626520696e207468652066757475604482015261726560f01b60648201526084016103de565b6008556007805460ff19166001179055565b61099f6109d2565b6001600160a01b0381166109c957604051631e4fbdf760e01b8152600060048201526024016103de565b610501816109ff565b6000546001600160a01b031633146108af5760405163118cdaa760e01b81523360048201526024016103de565b600080546001600160a01b038381166001600160a01b0319831681178455604051919092169283917f8be0079c531659141344cd1fd0a4f28419497f9722a3daafe3b4186f6b6457e09190a35050565b508054600082559060005260206000209081019061050191905b80821115610a7d5760008155600101610a69565b5090565b600060208284031215610a9357600080fd5b5035919050565b600060208284031215610aac57600080fd5b81356001600160a01b0381168114610ac357600080fd5b9392505050565b634e487b7160e01b600052601160045260246000fd5b80820180821115610af357610af3610aca565b92915050565b600060208284031215610b0b57600080fd5b81518015158114610ac357600080fd5b8082028115828204841417610af357610af3610aca565b81810381811115610af357610af3610aca565b634e487b7160e01b600052601260045260246000fd5b600082610b6a57610b6a610b45565b500490565b600082610b7e57610b7e610b45565b500690565b634e487b7160e01b600052603260045260246000fd5b600081610ba857610ba8610aca565b50600019019056fea2646970667358221220b3d2e3f94de1573745702c973a04360e485c4d88f026aff44f1399bcbca0722a64736f6c6343000818003360806040523480156200001157600080fd5b5060405162000fdc38038062000fdc833981016040819052620000349162000216565b8181600362000044838262000311565b50600462000053828262000311565b5062000065915060009050336200009b565b50620000927f9f2df0fed2c77648de5860a4cc508cd0818c85b8b8a1ab4ceeef8d981c8956a6336200009b565b505050620003dd565b60008281526005602090815260408083206001600160a01b038516845290915281205460ff16620001445760008381526005602090815260408083206001600160a01b03861684529091529020805460ff19166001179055620000fb3390565b6001600160a01b0316826001600160a01b0316847f2f8788117e7eff1d82e926ec794901d17c78024a50270940304540a733656f0d60405160405180910390a450600162000148565b5060005b92915050565b634e487b7160e01b600052604160045260246000fd5b600082601f8301126200017657600080fd5b81516001600160401b03808211156200019357620001936200014e565b604051601f8301601f19908116603f01168101908282118183101715620001be57620001be6200014e565b8160405283815260209250866020858801011115620001dc57600080fd5b600091505b83821015620002005785820183015181830184015290820190620001e1565b6000602085830101528094505050505092915050565b600080604083850312156200022a57600080fd5b82516001600160401b03808211156200024257600080fd5b620002508683870162000164565b935060208501519150808211156200026757600080fd5b50620002768582860162000164565b9150509250929050565b600181811c908216806200029557607f821691505b602082108103620002b657634e487b7160e01b600052602260045260246000fd5b50919050565b601f8211156200030c576000816000526020600020601f850160051c81016020861015620002e75750805b601f850160051c820191505b818110156200030857828155600101620002f3565b5050505b505050565b81516001600160401b038111156200032d576200032d6200014e565b62000345816200033e845462000280565b84620002bc565b602080601f8311600181146200037d5760008415620003645750858301515b600019600386901b1c1916600185901b17855562000308565b600085815260208120601f198616915b82811015620003ae578886015182559484019460019091019084016200038d565b5085821015620003cd5787850151600019600388901b60f8161c191681555b5050505050600190811b01905550565b610bef80620003ed6000396000f3fe608060405234801561001057600080fd5b506004361061012c5760003560e01c806342966c68116100ad578063a217fddf11610071578063a217fddf1461027d578063a9059cbb14610285578063d539139314610298578063d547741f146102bf578063dd62ed3e146102d257600080fd5b806342966c681461021357806370a082311461022657806379cc67901461024f57806391d148541461026257806395d89b411461027557600080fd5b8063248a9ca3116100f4578063248a9ca3146101a65780632f2ff15d146101c9578063313ce567146101de57806336568abe146101ed57806340c10f191461020057600080fd5b806301ffc9a71461013157806306fdde0314610159578063095ea7b31461016e57806318160ddd1461018157806323b872dd14610193575b600080fd5b61014461013f3660046109d2565b61030b565b60405190151581526020015b60405180910390f35b610161610342565b6040516101509190610a03565b61014461017c366004610a6e565b6103d4565b6002545b604051908152602001610150565b6101446101a1366004610a98565b6103ec565b6101856101b4366004610ad4565b60009081526005602052604090206001015490565b6101dc6101d7366004610aed565b610410565b005b60405160128152602001610150565b6101dc6101fb366004610aed565b61043b565b6101dc61020e366004610a6e565b610473565b6101dc610221366004610ad4565b6104a7565b610185610234366004610b19565b6001600160a01b031660009081526020819052604090205490565b6101dc61025d366004610a6e565b6104b4565b610144610270366004610aed565b6104cd565b6101616104f8565b610185600081565b610144610293366004610a6e565b610507565b6101857f9f2df0fed2c77648de5860a4cc508cd0818c85b8b8a1ab4ceeef8d981c8956a681565b6101dc6102cd366004610aed565b610515565b6101856102e0366004610b34565b6001600160a01b03918216600090815260016020908152604080832093909416825291909152205490565b60006001600160e01b03198216637965db0b60e01b148061033c57506301ffc9a760e01b6001600160e01b03198316145b92915050565b60606003805461035190610b5e565b80601f016020809104026020016040519081016040528092919081815260200182805461037d90610b5e565b80156103ca5780601f1061039f576101008083540402835291602001916103ca565b820191906000526020600020905b8154815290600101906020018083116103ad57829003601f168201915b5050505050905090565b6000336103e281858561053a565b5060019392505050565b6000336103fa858285610547565b6104058585856105c4565b506001949350505050565b60008281526005602052604090206001015461042b81610623565b610435838361062d565b50505050565b6001600160a01b03811633146104645760405163334bd91960e11b815260040160405180910390fd5b61046e82826106c1565b505050565b7f9f2df0fed2c77648de5860a4cc508cd0818c85b8b8a1ab4ceeef8d981c8956a661049d81610623565b61046e838361072e565b6104b13382610764565b50565b6104bf823383610547565b6104c98282610764565b5050565b60009182526005602090815260408084206001600160a01b0393909316845291905290205460ff1690565b60606004805461035190610b5e565b6000336103e28185856105c4565b60008281526005602052604090206001015461053081610623565b61043583836106c1565b61046e838383600161079a565b6001600160a01b03838116600090815260016020908152604080832093861683529290522054600019811461043557818110156105b557604051637dc7a0d960e11b81526001600160a01b038416600482015260248101829052604481018390526064015b60405180910390fd5b6104358484848403600061079a565b6001600160a01b0383166105ee57604051634b637e8f60e11b8152600060048201526024016105ac565b6001600160a01b0382166106185760405163ec442f0560e01b8152600060048201526024016105ac565b61046e83838361086f565b6104b18133610999565b600061063983836104cd565b6106b95760008381526005602090815260408083206001600160a01b03861684529091529020805460ff191660011790556106713390565b6001600160a01b0316826001600160a01b0316847f2f8788117e7eff1d82e926ec794901d17c78024a50270940304540a733656f0d60405160405180910390a450600161033c565b50600061033c565b60006106cd83836104cd565b156106b95760008381526005602090815260408083206001600160a01b0386168085529252808320805460ff1916905551339286917ff6391f5c32d9c69d2a47ea670b442974b53935d1edc7fd64eb21e047a839171b9190a450600161033c565b6001600160a01b0382166107585760405163ec442f0560e01b8152600060048201526024016105ac565b6104c96000838361086f565b6001600160a01b03821661078e57604051634b637e8f60e11b8152600060048201526024016105ac565b6104c98260008361086f565b6001600160a01b0384166107c45760405163e602df0560e01b8152600060048201526024016105ac565b6001600160a01b0383166107ee57604051634a1406b160e11b8152600060048201526024016105ac565b6001600160a01b038085166000908152600160209081526040808320938716835292905220829055801561043557826001600160a01b0316846001600160a01b03167f8c5be1e5ebec7d5bd14f71427d1e84f3dd0314c0f7b2291e5b200ac8c7c3b9258460405161086191815260200190565b60405180910390a350505050565b6001600160a01b03831661089a57806002600082825461088f9190610b98565b9091555061090c9050565b6001600160a01b038316600090815260208190526040902054818110156108ed5760405163391434e360e21b81526001600160a01b038516600482015260248101829052604481018390526064016105ac565b6001600160a01b03841660009081526020819052604090209082900390555b6001600160a01b03821661092857600280548290039055610947565b6001600160a01b03821660009081526020819052604090208054820190555b816001600160a01b0316836001600160a01b03167fddf252ad1be2c89b69c2b068fc378daa952ba7f163c4a11628f55a4df523b3ef8360405161098c91815260200190565b60405180910390a3505050565b6109a382826104cd565b6104c95760405163e2517d3f60e01b81526001600160a01b0382166004820152602481018390526044016105ac565b6000602082840312156109e457600080fd5b81356001600160e01b0319811681146109fc57600080fd5b9392505050565b60006020808352835180602085015260005b81811015610a3157858101830151858201604001528201610a15565b506000604082860101526040601f19601f8301168501019250505092915050565b80356001600160a01b0381168114610a6957600080fd5b919050565b60008060408385031215610a8157600080fd5b610a8a83610a52565b946020939093013593505050565b600080600060608486031215610aad57600080fd5b610ab684610a52565b9250610ac460208501610a52565b9150604084013590509250925092565b600060208284031215610ae657600080fd5b5035919050565b60008060408385031215610b0057600080fd5b82359150610b1060208401610a52565b90509250929050565b600060208284031215610b2b57600080fd5b6109fc82610a52565b60008060408385031215610b4757600080fd5b610b5083610a52565b9150610b1060208401610a52565b600181811c90821680610b7257607f821691505b602082108103610b9257634e487b7160e01b600052602260045260246000fd5b50919050565b8082018082111561033c57634e487b7160e01b600052601160045260246000fdfea264697066735822122022105dd2309fdca327259f4413a2972e36200ff57fa51b29efc1e13b7b2570a564736f6c63430008180033",
  "linkReferences": {},
  "deployedLinkReferences": {}
}